{
  "_format": "hh-sol-artifact-1",
  "contractName": "PriceRecorder",
  "sourceName": "contracts/PriceRecorder.sol",
  "abi": [
    {
      "inputs": [
        {
          "internalType": "address",
          "name": "_ftsoV2Override",
          "type": "address"
        }
      ],
      "stateMutability": "nonpayable",
      "type": "constructor"
    },
    {
      "inputs": [
        {
          "internalType": "uint256",
          "name": "requested",
          "type": "uint256"
        },
        {
          "internalType": "uint256",
          "name": "available",
          "type": "uint256"
        }
      ],
      "name": "InsufficientData",
      "type": "error"
    },
    {
      "anonymous": false,
      "inputs": [
        {
          "indexed": false,
          "internalType": "uint256",
          "name": "price",
          "type": "uint256"
        },
        {
          "indexed": false,
          "internalType": "int8",
          "name": "decimals",
          "type": "int8"
        },
        {
          "indexed": false,
          "internalType": "uint64",
          "name": "timestamp",
          "type": "uint64"
        }
      ],
      "name": "PriceRecorded",
      "type": "event"
    },
    {
      "inputs": [],
      "name": "FLR_USD_FEED_ID",
      "outputs": [
        {
          "internalType": "bytes21",
          "name": "",
          "type": "bytes21"
        }
      ],
      "stateMutability": "view",
      "type": "function"
    },
    {
      "inputs": [
        {
          "internalType": "uint256",
          "name": "n",
          "type": "uint256"
        }
      ],
      "name": "getLastNPrices",
      "outputs": [
        {
          "components": [
            {
              "internalType": "uint256",
              "name": "price",
              "type": "uint256"
            },
            {
              "internalType": "int8",
              "name": "decimals",
              "type": "int8"
            },
            {
              "internalType": "uint64",
              "name": "timestamp",
              "type": "uint64"
            }
          ],
          "internalType": "struct PriceRecorder.PriceData[]",
          "name": "",
          "type": "tuple[]"
        }
      ],
      "stateMutability": "view",
      "type": "function"
    },
    {
      "inputs": [
        {
          "internalType": "uint256",
          "name": "",
          "type": "uint256"
        }
      ],
      "name": "priceHistory",
      "outputs": [
        {
          "internalType": "uint256",
          "name": "price",
          "type": "uint256"
        },
        {
          "internalType": "int8",
          "name": "decimals",
          "type": "int8"
        },
        {
          "internalType": "uint64",
          "name": "timestamp",
          "type": "uint64"
        }
      ],
      "stateMutability": "view",
      "type": "function"
    },
    {
      "inputs": [],
      "name": "recordPrice",
      "outputs": [],
      "stateMutability": "nonpayable",
      "type": "function"
    }
  ],
  "bytecode": "0x608060405234801561001057600080fd5b50604051610a8c380380610a8c83398101604081905261002f91610156565b6001600160a01b0381161561005e57600080546001600160a01b0319166001600160a01b038316179055610087565b61006661008d565b600080546001600160a01b0319166001600160a01b03929092169190911790555b50610186565b600073ad67fe66660fb8dfe9d6b1b4240d8650e30f60196001600160a01b031663159354a26040516020016100dc90602080825260069082015265233a39b7ab1960d11b604082015260600190565b604051602081830303815290604052805190602001206040518263ffffffff1660e01b815260040161011091815260200190565b602060405180830381865afa15801561012d573d6000803e3d6000fd5b505050506040513d601f19601f820116820180604052508101906101519190610156565b905090565b60006020828403121561016857600080fd5b81516001600160a01b038116811461017f57600080fd5b9392505050565b6108f7806101956000396000f3fe608060405234801561001057600080fd5b506004361061004c5760003560e01c806351ce65671461005157806369f161c41461005b5780639b6e5ddf1461008e578063b27a0484146100ae575b600080fd5b6100596100e9565b005b61006c665193148bd554d160c21b81565b6040516affffffffffffffffffffff1990911681526020015b60405180910390f35b6100a161009c366004610596565b610333565b60405161008591906105af565b6100c16100bc366004610596565b61048b565b6040805193845260009290920b602084015267ffffffffffffffff1690820152606001610085565b6100f16104cd565b600080546001600160a01b0319166001600160a01b03929092169190911781556040805160018082528183019092529060208083019080368337019050509050665193148bd554d1606a1b60581b8160008151811061015257610152610631565b6affffffffffffffffffffff199092166020928302919091019091015260008054604051634c37574560e01b8152829182916001600160a01b0390911690634c375745906101a4908790600401610647565b6000604051808303816000875af11580156101c3573d6000803e3d6000fd5b505050506040513d6000823e601f3d908101601f191682016040526101eb919081019061077b565b925092509250600160405180606001604052808560008151811061021157610211610631565b602002602001015181526020018460008151811061023157610231610631565b602090810291909101810151600090810b835267ffffffffffffffff808716938301939093528454600181810187559582528282208551600290920201908155918401519190940180546040909401519092166101000268ffffffffffffffffff1990931660ff9091161791909117905583517f4c3ada6e6114fba8bcf8495a8839b1b38e6dacb7a3d010a6b1a9479399269f2a9185916102d4576102d4610631565b6020026020010151836000815181106102ef576102ef610631565b6020026020010151836040516103259392919092835260009190910b602083015267ffffffffffffffff16604082015260600190565b60405180910390a150505050565b600154606090821115610370576001546040516317eb239760e11b8152610367918491600401918252602082015260400190565b60405180910390fd5b60008267ffffffffffffffff81111561038b5761038b61061b565b6040519080825280602002602001820160405280156103d657816020015b60408051606081018252600080825260208083018290529282015282526000199092019101816103a95790505b506001549091506000906103eb908590610865565b905060005b84811015610482576001610404828461087e565b8154811061041457610414610631565b600091825260208083206040805160608101825260029490940290910180548452600101549384900b9183019190915261010090920467ffffffffffffffff1691810191909152835184908390811061046f5761046f610631565b60209081029190910101526001016103f0565b50909392505050565b6001818154811061049b57600080fd5b60009182526020822060029091020180546001909101549092509081900b9067ffffffffffffffff6101009091041683565b600073ad67fe66660fb8dfe9d6b1b4240d8650e30f60196001600160a01b031663159354a260405160200161051c90602080825260069082015265233a39b7ab1960d11b604082015260600190565b604051602081830303815290604052805190602001206040518263ffffffff1660e01b815260040161055091815260200190565b602060405180830381865afa15801561056d573d6000803e3d6000fd5b505050506040513d601f19601f820116820180604052508101906105919190610891565b905090565b6000602082840312156105a857600080fd5b5035919050565b602080825282518282018190526000918401906040840190835b8181101561061057835180518452602081015160000b602085015267ffffffffffffffff6040820151166040850152506060830192506020840193506001810190506105c9565b509095945050505050565b634e487b7160e01b600052604160045260246000fd5b634e487b7160e01b600052603260045260246000fd5b602080825282518282018190526000918401906040840190835b818110156106105783516affffffffffffffffffffff1916835260209384019390920191600101610661565b604051601f8201601f1916810167ffffffffffffffff811182821017156106b6576106b661061b565b604052919050565b600067ffffffffffffffff8211156106d8576106d861061b565b5060051b60200190565b600082601f8301126106f357600080fd5b8151610706610701826106be565b61068d565b8082825260208201915060208360051b86010192508583111561072857600080fd5b602085015b838110156107545780518060000b811461074657600080fd5b83526020928301920161072d565b5095945050505050565b805167ffffffffffffffff8116811461077657600080fd5b919050565b60008060006060848603121561079057600080fd5b835167ffffffffffffffff8111156107a757600080fd5b8401601f810186136107b857600080fd5b80516107c6610701826106be565b8082825260208201915060208360051b8501019250888311156107e857600080fd5b6020840193505b8284101561080a5783518252602093840193909101906107ef565b80965050505050602084015167ffffffffffffffff81111561082b57600080fd5b610837868287016106e2565b9250506108466040850161075e565b90509250925092565b634e487b7160e01b600052601160045260246000fd5b818103818111156108785761087861084f565b92915050565b808201808211156108785761087861084f565b6000602082840312156108a357600080fd5b81516001600160a01b03811681146108ba57600080fd5b939250505056fea2646970667358221220ec883d1197d011105763e9aa801f4e5d216b5a47285b3c5f9ac210707e6c01ba64736f6c634300081c0033",
  "linkReferences": {},
  "deployedLinkReferences": {}
}